:020000001fffe0
:020001001ffde1
:020002001ff5e8
:020003001fe9f3
:020004001fd803
:020005001fc119
:020006001fa633
:020007001f8652
:020008001f6275
:020009001f389e
:02000a001f0acb
:02000b001ed6ff
:02000c001e9e36
:02000d001e6271
:02000e001e20b2
:02000f001ddaf8
:020010001d8f42
:020011001d4090
:020012001cede3
:020013001c943b
:020014001c3896
:020015001bd7f7
:020016001b725b
:020017001b08c4
:020018001a9b31
:020019001a29a2
:02001a0019b318
:02001b00193991
:02001c0018bc0e
:02001d00183a8f
:02001e0017b514
:02001f00172c9c
:0200200016a028
:020021001610b7
:02002200157d4a
:0200230014e6e1
:02002400144c7a
:0200250013af17
:02002600130fb6
:02002700126c59
:0200280011c7fe
:02002900111ea6
:02002a00107351
:02002b000fc5ff
:02002c000f15ae
:02002d000e6360
:02002e000dae15
:02002f000cf7cc
:020030000c3f83
:020031000b843e
:020032000ac7fb
:020033000a09b8
:02003400094a77
:02003500088938
:0200360007c6fb
:020037000703bd
:02003800063e82
:02003900057848
:02003a0004b20e
:02003b0003ebd5
:02003c0003239c
:02003d00025b64
:02003e0001922d
:02003f0000c9f6
:020040000000be
:00000001FF
