:020000000000fe
:020001003fcef0
:020002003f9b22
:020003003f6953
:020004003f3784
:020005003f05b5
:020006003ed3e7
:020007003ea019
:020008003e6e4a
:020009003e3c7b
:02000a003e0aac
:02000b003dd8de
:02000c003da510
:02000d003d7341
:02000e003d4172
:02000f003d0fa3
:020010003cddd5
:020011003cab06
:020012003c7937
:020013003c4768
:020014003c1599
:020015003be3cb
:020016003bb2fb
:020017003b802c
:020018003b4e5d
:020019003b1c8e
:02001a003aebbf
:02001b003ab9f0
:02001c003a8820
:02001d003a5651
:02001e003a2581
:02001f0039f3b3
:0200200039c2e3
:02002100399113
:02002200396043
:02002300392e74
:0200240038fda5
:0200250038ccd5
:02002600389b05
:02002700386b34
:02002800383a64
:02002900380994
:02002a0037d8c5
:02002b0037a8f4
:02002c00377724
:02002d00374753
:02002e00371782
:02002f0036e6b3
:0200300036b6e2
:02003100368611
:02003200365640
:0200330036266f
:0200340035f79e
:0200350035c7cd
:020036003597fc
:0200370035682a
:02003800353958
:02003900350987
:02003a0034dab6
:02003b0034abe4
:02003c00347c12
:02003d00344d40
:02003e00341f6d
:02003f0033f09c
:0200400033c1ca
:020041003393f7
:02004200336524
:02004300333751
:0200440033097e
:0200450032dbac
:0200460032add9
:02004700327f06
:02004800325232
:0200490032255e
:02004a0031f78c
:02004b0031cab8
:02004c00319de4
:02004d00317010
:02004e0031443b
:02004f00311767
:0200500030eb93
:0200510030bfbe
:020052003092ea
:02005300306615
:02005400303b3f
:02005500300f6a
:020056002fe495
:020057002fb8c0
:020058002f8dea
:020059002f6214
:02005a002f373e
:02005b002f0c68
:02005c002ee292
:02005d002eb7bc
:02005e002e8de5
:02005f002e630e
:020060002e3937
:020061002e105f
:020062002de689
:020063002dbdb1
:020064002d94d9
:020065002d6b01
:020066002d4229
:020067002d1951
:020068002cf179
:020069002cc8a1
:02006a002ca0c8
:02006b002c78ef
:02006c002c5115
:02006d002c293c
:02006e002c0262
:02006f002bdb89
:020070002bb4af
:020071002b8dd5
:020072002b66fb
:020073002b4020
:020074002b1a45
:020075002af46b
:020076002ace90
:020077002aa9b4
:020078002a83d9
:020079002a5efd
:02007a002a3921
:02007b002a1445
:02007c0029f069
:02007d0029cc8c
:02007e0029a8af
:02007f002984d2
:020080002960f5
:02008100293d17
:0200820029193a
:0200830028f65d
:0200840028d47e
:0200850028b1a0
:02008600288fc1
:02008700286de2
:02008800284b03
:02008900282924
:02008a00280844
:02008b0027e765
:02008c0027c685
:02008d0027a5a5
:02008e002785c4
:02008f002764e4
:02009000274403
:02009100272521
:02009200270540
:0200930026e65f
:0200940026c77d
:0200950026a89b
:020096002689b9
:02009700266bd6
:02009800264df3
:02009900262f10
:02009a0026122c
:02009b0025f44a
:02009c0025d766
:02009d0025ba82
:02009e00259e9d
:02009f002581b9
:0200a0002565d4
:0200a100254aee
:0200a200252e09
:0200a300251323
:0200a40024f83e
:0200a50024dd58
:0200a60024c371
:0200a70024a88b
:0200a800248ea4
:0200a9002475bc
:0200aa00245bd5
:0200ab002442ed
:0200ac00242905
:0200ad0024101d
:0200ae0023f835
:0200af0023e04c
:0200b00023c863
:0200b10023b179
:0200b200239990
:0200b3002382a6
:0200b400236cbb
:0200b5002355d1
:0200b600233fe6
:0200b7002329fb
:0200b800231310
:0200b90022fe25
:0200ba0022e939
:0200bb0022d44d
:0200bc0022c060
:0200bd0022ab74
:0200be00229886
:0200bf00228499
:0200c0002271ab
:0200c100225dbe
:0200c200224bcf
:0200c3002238e1
:0200c4002226f2
:0200c500221403
:0200c600220214
:0200c70021f125
:0200c80021e035
:0200c90021cf45
:0200ca0021bf54
:0200cb0021ae64
:0200cc00219e73
:0200cd00218f81
:0200ce00217f90
:0200cf0021709e
:0200d0002162ab
:0200d1002153b9
:0200d2002145c6
:0200d3002137d3
:0200d400212adf
:0200d500211cec
:0200d600210ff8
:0200d700210303
:0200d80020f610
:0200d90020ea1b
:0200da0020df25
:0200db0020d330
:0200dc0020c83a
:0200dd0020bd44
:0200de0020b34d
:0200df0020a857
:0200e000209e60
:0200e100209568
:0200e200208b71
:0200e300208279
:0200e400207a80
:0200e500207188
:0200e60020698f
:0200e700206196
:0200e800205a9c
:0200e9002052a3
:0200ea00204ca8
:0200eb002045ae
:0200ec00203fb3
:0200ed002039b8
:0200ee002033bd
:0200ef00202ec1
:0200f0002028c6
:0200f1002024c9
:0200f200201fcd
:0200f300201bd0
:0200f4002017d3
:0200f5002014d5
:0200f6002010d8
:0200f700200dda
:0200f800200bdb
:0200f9002009dc
:0200fa002007dd
:0200fb002005de
:0200fc002003df
:0200fd002002df
:0200fe002002de
:0200ff002001de
:020100000000fd
:00000001FF
