:020000001fffe0
:020001001fffdf
:020002001ffedf
:020003001ffede
:020004001ffdde
:020005001ffbdf
:020006001ff9e0
:020007001ff7e1
:020008001ff5e2
:020009001ff3e3
:02000a001ff0e5
:02000b001fece8
:02000c001fe9ea
:02000d001fe5ed
:02000e001fe1f0
:02000f001fdcf4
:020010001fd8f7
:020011001fd2fc
:020012001fcd00
:020013001fc705
:020014001fc10a
:020015001fbb0f
:020016001fb415
:020017001fae1a
:020018001fa621
:020019001f9f27
:02001a001f972e
:02001b001f8f35
:02001c001f863d
:02001d001f7e44
:02001e001f754c
:02001f001f6b55
:020020001f625d
:020021001f5866
:020022001f4d70
:020023001f4379
:020024001f3883
:020025001f2d8d
:020026001f2198
:020027001f16a2
:020028001f0aad
:020029001efdba
:02002a001ef1c5
:02002b001ee4d1
:02002c001ed6de
:02002d001ec9ea
:02002e001ebbf7
:02002f001ead04
:020030001e9e12
:020031001e901f
:020032001e812d
:020033001e713c
:020034001e624a
:020035001e5259
:020036001e4169
:020037001e3178
:020038001e2088
:020039001e0f98
:02003a001dfea9
:02003b001decba
:02003c001ddacb
:02003d001dc8dc
:02003e001db5ee
:02003f001da3ff
:020040001d8f12
:020041001d7c24
:020042001d6837
:020043001d5549
:020044001d405d
:020045001d2c70
:020046001d1784
:020047001d0298
:020048001cedad
:020049001cd7c2
:02004a001cc1d7
:02004b001cabec
:02004c001c9402
:02004d001c7e17
:02004e001c672d
:02004f001c4f44
:020050001c385a
:020051001c2071
:020052001c0888
:020053001bf0a0
:020054001bd7b8
:020055001bbed0
:020056001ba5e8
:020057001b8b01
:020058001b7219
:020059001b5832
:02005a001b3d4c
:02005b001b2365
:02005c001b087f
:02005d001aed9a
:02005e001ad2b4
:02005f001ab6cf
:020060001a9be9
:020061001a7f04
:020062001a6220
:020063001a463b
:020064001a2957
:020065001a0c73
:0200660019ee91
:0200670019d1ad
:0200680019b3ca
:020069001995e7
:02006a00197704
:02006b00195822
:02006c00193940
:02006d00191a5e
:02006e0018fb7d
:02006f0018db9c
:0200700018bcba
:02007100189cd9
:02007200187bf9
:02007300185b18
:02007400183a38
:02007500181958
:0200760017f879
:0200770017d799
:0200780017b5ba
:020079001793db
:02007a001771fc
:02007b00174f1d
:02007c00172c3f
:02007d00170a60
:02007e0016e783
:02007f0016c3a6
:0200800016a0c8
:02008100167ceb
:0200820016580e
:02008300163431
:02008400161054
:0200850015ec78
:0200860015c79c
:0200870015a2c0
:02008800157de4
:02008900155709
:02008a0015322d
:02008b00150c52
:02008c0014e678
:02008d0014c09d
:02008e00149ac2
:02008f001473e8
:02009000144c0e
:02009100142534
:0200920013fe5b
:0200930013d781
:0200940013afa8
:020095001388ce
:020096001360f5
:0200970013381c
:02009800130f44
:0200990012e76c
:02009a0012be94
:02009b001295bc
:02009c00126ce4
:02009d0012430c
:02009e00121a34
:02009f0011f05e
:0200a00011c786
:0200a100119daf
:0200a2001173d8
:0200a300114901
:0200a400111e2b
:0200a50010f455
:0200a60010c97f
:0200a700109ea9
:0200a8001073d3
:0200a9001048fd
:0200aa00101c28
:0200ab000ff153
:0200ac000fc57e
:0200ad000f9aa8
:0200ae000f6ed3
:0200af000f41ff
:0200b0000f152a
:0200b1000ee956
:0200b2000ebc82
:0200b3000e90ad
:0200b4000e63d9
:0200b5000e3605
:0200b6000e0931
:0200b7000ddb5f
:0200b8000dae8b
:0200b9000d81b7
:0200ba000d53e4
:0200bb000d2511
:0200bc000cf73f
:0200bd000cc96c
:0200be000c9b99
:0200bf000c6dc6
:0200c0000c3ff3
:0200c1000c1021
:0200c2000be150
:0200c3000bb37d
:0200c4000b84ab
:0200c5000b55d9
:0200c6000b2607
:0200c7000af736
:0200c8000ac765
:0200c9000a9893
:0200ca000a69c1
:0200cb000a39f0
:0200cc000a091f
:0200cd0009da4e
:0200ce0009aa7d
:0200cf00097aac
:0200d000094adb
:0200d100091a0a
:0200d20008e93b
:0200d30008b96a
:0200d400088999
:0200d5000858c9
:0200d6000828f8
:0200d70007f729
:0200d80007c659
:0200d900079589
:0200da000765b8
:0200db000734e8
:0200dc00070318
:0200dd0006d249
:0200de0006a07a
:0200df00066faa
:0200e000063eda
:0200e100060d0a
:0200e20005db3c
:0200e30005aa6c
:0200e40005789d
:0200e5000547cd
:0200e6000515fe
:0200e70004e42f
:0200e80004b260
:0200e900048091
:0200ea00044ec2
:0200eb00041df2
:0200ec0003eb24
:0200ed0003b955
:0200ee00038786
:0200ef000355b7
:0200f0000323e8
:0200f10002f11a
:0200f20002bf4b
:0200f300028d7c
:0200f400025bad
:0200f5000228df
:0200f60001f611
:0200f70001c442
:0200f800019273
:0200f9000160a4
:0200fa00012dd6
:0200fb0000fb08
:0200fc0000c939
:0200fd0000976a
:0200fe0000659b
:0200ff000032cd
:020100000000fd
:00000001FF
