:020000000000fe
:020001003f3787
:020002003e6e50
:020003003da519
:020004003cdde1
:020005003c15a8
:020006003b4e6f
:020007003a8835
:0200080039c2fb
:0200090038fdc0
:02000a00383a82
:02000b00377745
:02000c0036b606
:02000d0035f7c5
:02000e00353982
:02000f00347c3f
:0200100033c1fa
:020011003309b1
:02001200325268
:02001300319d1d
:0200140030ebcf
:02001500303b7e
:020016002f8d2c
:020017002ee2d7
:020018002e397f
:020019002d9424
:02001a002cf1c7
:02001b002c5166
:02001c002bb403
:02001d002b1a9c
:02001e002a8333
:02001f0029f0c6
:02002000296055
:0200210028d4e1
:02002200284b69
:0200230027c6ee
:0200240027446f
:0200250026c7ec
:02002600264d65
:0200270025d7db
:0200280025654c
:0200290024f8b9
:02002a00248e22
:02002b00242986
:02002c0023c8e7
:02002d00236c42
:02002e0023139a
:02002f0022c0ed
:0200300022713b
:02003100222685
:0200320021e0cb
:02003300219e0c
:02003400216247
:02003500212a7e
:0200360020f6b2
:0200370020c8df
:02003800209e08
:02003900207a2b
:02003a00205a4a
:02003b00203f64
:02003c0020287a
:02003d0020178a
:02003e00200b95
:02003f0020039c
:020040000000be
:00000001FF
